{
  "@chainlink/contracts-ccip/src/v0.8/ccip/libraries/Client.sol": {
    "Client": {
      "abi": [
        {
          "inputs": [],
          "name": "EVM_EXTRA_ARGS_V1_TAG",
          "outputs": [
            {
              "internalType": "bytes4",
              "name": "",
              "type": "bytes4"
            }
          ],
          "stateMutability": "view",
          "type": "function"
        }
      ],
      "evm": {
        "bytecode": {
          "linkReferences": {},
          "object": "60e5610052600b82828239805160001a607314610045577f4e487b7100000000000000000000000000000000000000000000000000000000600052600060045260246000fd5b30600052607381538281f3fe730000000000000000000000000000000000000000301460806040526004361060335760003560e01c80633ab8c0d0146038575b600080fd5b603e6052565b604051604991906096565b60405180910390f35b6397a657c960e01b81565b60007fffffffff0000000000000000000000000000000000000000000000000000000082169050919050565b609081605d565b82525050565b600060208201905060a960008301846089565b9291505056fea2646970667358221220a8871eeba40adb66175cb490fd325dc356e9c3d0a93dd8be483a690774f9a3fc64736f6c63430008180033",
          "opcodes": "PUSH1 0xE5 PUSH2 0x52 PUSH1 0xB DUP3 DUP3 DUP3 CODECOPY DUP1 MLOAD PUSH1 0x0 BYTE PUSH1 0x73 EQ PUSH2 0x45 JUMPI PUSH32 0x4E487B7100000000000000000000000000000000000000000000000000000000 PUSH1 0x0 MSTORE PUSH1 0x0 PUSH1 0x4 MSTORE PUSH1 0x24 PUSH1 0x0 REVERT JUMPDEST ADDRESS PUSH1 0x0 MSTORE PUSH1 0x73 DUP2 MSTORE8 DUP3 DUP2 RETURN INVALID PUSH20 0x0 ADDRESS EQ PUSH1 0x80 PUSH1 0x40 MSTORE PUSH1 0x4 CALLDATASIZE LT PUSH1 0x33 JUMPI PUSH1 0x0 CALLDATALOAD PUSH1 0xE0 SHR DUP1 PUSH4 0x3AB8C0D0 EQ PUSH1 0x38 JUMPI JUMPDEST PUSH1 0x0 DUP1 REVERT JUMPDEST PUSH1 0x3E PUSH1 0x52 JUMP JUMPDEST PUSH1 0x40 MLOAD PUSH1 0x49 SWAP2 SWAP1 PUSH1 0x96 JUMP JUMPDEST PUSH1 0x40 MLOAD DUP1 SWAP2 SUB SWAP1 RETURN JUMPDEST PUSH4 0x97A657C9 PUSH1 0xE0 SHL DUP2 JUMP JUMPDEST PUSH1 0x0 PUSH32 0xFFFFFFFF00000000000000000000000000000000000000000000000000000000 DUP3 AND SWAP1 POP SWAP2 SWAP1 POP JUMP JUMPDEST PUSH1 0x90 DUP2 PUSH1 0x5D JUMP JUMPDEST DUP3 MSTORE POP POP JUMP JUMPDEST PUSH1 0x0 PUSH1 0x20 DUP3 ADD SWAP1 POP PUSH1 0xA9 PUSH1 0x0 DUP4 ADD DUP5 PUSH1 0x89 JUMP JUMPDEST SWAP3 SWAP2 POP POP JUMP INVALID LOG2 PUSH5 0x6970667358 0x22 SLT KECCAK256 0xA8 DUP8 0x1E 0xEB LOG4 EXP 0xDB PUSH7 0x175CB490FD325D 0xC3 JUMP 0xE9 0xC3 0xD0 0xA9 RETURNDATASIZE 0xD8 0xBE BASEFEE GASPRICE PUSH10 0x774F9A3FC64736F6C63 NUMBER STOP ADDMOD XOR STOP CALLER "
        },
        "methodIdentifiers": {
          "EVM_EXTRA_ARGS_V1_TAG()": "3ab8c0d0"
        }
      }
    }
  }
}