{
  "_format": "hh-sol-artifact-1",
  "contractName": "CCIPSender",
  "sourceName": "contracts/CCIPSender.sol",
  "abi": [
    {
      "inputs": [
        {
          "internalType": "address",
          "name": "_router",
          "type": "address"
        },
        {
          "internalType": "address",
          "name": "_link",
          "type": "address"
        }
      ],
      "stateMutability": "nonpayable",
      "type": "constructor"
    },
    {
      "inputs": [
        {
          "internalType": "uint256",
          "name": "currentBalance",
          "type": "uint256"
        },
        {
          "internalType": "uint256",
          "name": "calculatedFees",
          "type": "uint256"
        }
      ],
      "name": "NotEnoughBalance",
      "type": "error"
    },
    {
      "anonymous": false,
      "inputs": [
        {
          "indexed": true,
          "internalType": "bytes32",
          "name": "messageId",
          "type": "bytes32"
        },
        {
          "indexed": true,
          "internalType": "uint64",
          "name": "destinationChainSelector",
          "type": "uint64"
        },
        {
          "indexed": false,
          "internalType": "address",
          "name": "receiver",
          "type": "address"
        },
        {
          "indexed": false,
          "internalType": "string",
          "name": "text",
          "type": "string"
        },
        {
          "indexed": false,
          "internalType": "address",
          "name": "feeToken",
          "type": "address"
        },
        {
          "indexed": false,
          "internalType": "uint256",
          "name": "fees",
          "type": "uint256"
        }
      ],
      "name": "MessageSent",
      "type": "event"
    },
    {
      "anonymous": false,
      "inputs": [
        {
          "indexed": true,
          "internalType": "address",
          "name": "from",
          "type": "address"
        },
        {
          "indexed": true,
          "internalType": "address",
          "name": "to",
          "type": "address"
        }
      ],
      "name": "OwnershipTransferRequested",
      "type": "event"
    },
    {
      "anonymous": false,
      "inputs": [
        {
          "indexed": true,
          "internalType": "address",
          "name": "from",
          "type": "address"
        },
        {
          "indexed": true,
          "internalType": "address",
          "name": "to",
          "type": "address"
        }
      ],
      "name": "OwnershipTransferred",
      "type": "event"
    },
    {
      "inputs": [],
      "name": "acceptOwnership",
      "outputs": [],
      "stateMutability": "nonpayable",
      "type": "function"
    },
    {
      "inputs": [],
      "name": "owner",
      "outputs": [
        {
          "internalType": "address",
          "name": "",
          "type": "address"
        }
      ],
      "stateMutability": "view",
      "type": "function"
    },
    {
      "inputs": [
        {
          "internalType": "uint64",
          "name": "destinationChainSelector",
          "type": "uint64"
        },
        {
          "internalType": "address",
          "name": "receiver",
          "type": "address"
        },
        {
          "internalType": "address",
          "name": "_election",
          "type": "address"
        },
        {
          "internalType": "uint256",
          "name": "_candidateId",
          "type": "uint256"
        }
      ],
      "name": "sendMessage",
      "outputs": [
        {
          "internalType": "bytes32",
          "name": "messageId",
          "type": "bytes32"
        }
      ],
      "stateMutability": "nonpayable",
      "type": "function"
    },
    {
      "inputs": [
        {
          "internalType": "address",
          "name": "to",
          "type": "address"
        }
      ],
      "name": "transferOwnership",
      "outputs": [],
      "stateMutability": "nonpayable",
      "type": "function"
    }
  ],
  "bytecode": "0x60806040523480156200001157600080fd5b506040516200176838038062001768833981810160405281019062000037919062000359565b338060008073ffffffffffffffffffffffffffffffffffffffff168273ffffffffffffffffffffffffffffffffffffffff1603620000ac576040517f08c379a0000000000000000000000000000000000000000000000000000000008152600401620000a39062000401565b60405180910390fd5b816000806101000a81548173ffffffffffffffffffffffffffffffffffffffff021916908373ffffffffffffffffffffffffffffffffffffffff160217905550600073ffffffffffffffffffffffffffffffffffffffff168173ffffffffffffffffffffffffffffffffffffffff161462000133576200013281620001c060201b60201c565b5b50505081600260006101000a81548173ffffffffffffffffffffffffffffffffffffffff021916908373ffffffffffffffffffffffffffffffffffffffff16021790555080600360006101000a81548173ffffffffffffffffffffffffffffffffffffffff021916908373ffffffffffffffffffffffffffffffffffffffff160217905550505062000495565b3373ffffffffffffffffffffffffffffffffffffffff168173ffffffffffffffffffffffffffffffffffffffff160362000231576040517f08c379a0000000000000000000000000000000000000000000000000000000008152600401620002289062000473565b60405180910390fd5b80600160006101000a81548173ffffffffffffffffffffffffffffffffffffffff021916908373ffffffffffffffffffffffffffffffffffffffff1602179055508073ffffffffffffffffffffffffffffffffffffffff1660008054906101000a900473ffffffffffffffffffffffffffffffffffffffff1673ffffffffffffffffffffffffffffffffffffffff167fed8889f560326eb138920d842192f0eb3dd22b4f139c87a2c57538e05bae127860405160405180910390a350565b600080fd5b600073ffffffffffffffffffffffffffffffffffffffff82169050919050565b60006200032182620002f4565b9050919050565b620003338162000314565b81146200033f57600080fd5b50565b600081519050620003538162000328565b92915050565b60008060408385031215620003735762000372620002ef565b5b6000620003838582860162000342565b9250506020620003968582860162000342565b9150509250929050565b600082825260208201905092915050565b7f43616e6e6f7420736574206f776e657220746f207a65726f0000000000000000600082015250565b6000620003e9601883620003a0565b9150620003f682620003b1565b602082019050919050565b600060208201905081810360008301526200041c81620003da565b9050919050565b7f43616e6e6f74207472616e7366657220746f2073656c66000000000000000000600082015250565b60006200045b601783620003a0565b9150620004688262000423565b602082019050919050565b600060208201905081810360008301526200048e816200044c565b9050919050565b6112c380620004a56000396000f3fe608060405234801561001057600080fd5b506004361061004c5760003560e01c806379ba5097146100515780637e2038e51461005b5780638da5cb5b1461008b578063f2fde38b146100a9575b600080fd5b6100596100c5565b005b61007560048036038101906100709190610b36565b61025a565b6040516100829190610bb6565b60405180910390f35b6100936107b5565b6040516100a09190610be0565b60405180910390f35b6100c360048036038101906100be9190610bfb565b6107de565b005b600160009054906101000a900473ffffffffffffffffffffffffffffffffffffffff1673ffffffffffffffffffffffffffffffffffffffff163373ffffffffffffffffffffffffffffffffffffffff1614610155576040517f08c379a000000000000000000000000000000000000000000000000000000000815260040161014c90610c85565b60405180910390fd5b60008060009054906101000a900473ffffffffffffffffffffffffffffffffffffffff169050336000806101000a81548173ffffffffffffffffffffffffffffffffffffffff021916908373ffffffffffffffffffffffffffffffffffffffff1602179055506000600160006101000a81548173ffffffffffffffffffffffffffffffffffffffff021916908373ffffffffffffffffffffffffffffffffffffffff1602179055503373ffffffffffffffffffffffffffffffffffffffff168173ffffffffffffffffffffffffffffffffffffffff167f8be0079c531659141344cd1fd0a4f28419497f9722a3daafe3b4186f6b6457e060405160405180910390a350565b60006102646107f2565b600060405180606001604052808573ffffffffffffffffffffffffffffffffffffffff1681526020013373ffffffffffffffffffffffffffffffffffffffff16815260200184815250905060006040518060a00160405280876040516020016102cd9190610be0565b6040516020818303038152906040528152602001836040516020016102f29190610d05565b6040516020818303038152906040528152602001600067ffffffffffffffff81111561032157610320610d20565b5b60405190808252806020026020018201604052801561035a57816020015b610347610a2d565b81526020019060019003908161033f5790505b508152602001600360009054906101000a900473ffffffffffffffffffffffffffffffffffffffff1673ffffffffffffffffffffffffffffffffffffffff1681526020016103b8604051806020016040528062030d40815250610882565b81525090506000600260009054906101000a900473ffffffffffffffffffffffffffffffffffffffff1673ffffffffffffffffffffffffffffffffffffffff166320487ded89846040518363ffffffff1660e01b815260040161041c929190610f57565b602060405180830381865afa158015610439573d6000803e3d6000fd5b505050506040513d601f19601f8201168201806040525081019061045d9190610f9c565b9050600360009054906101000a900473ffffffffffffffffffffffffffffffffffffffff1673ffffffffffffffffffffffffffffffffffffffff166370a08231306040518263ffffffff1660e01b81526004016104ba9190610be0565b602060405180830381865afa1580156104d7573d6000803e3d6000fd5b505050506040513d601f19601f820116820180604052508101906104fb9190610f9c565b8111156105dc57600360009054906101000a900473ffffffffffffffffffffffffffffffffffffffff1673ffffffffffffffffffffffffffffffffffffffff166370a08231306040518263ffffffff1660e01b815260040161055d9190610be0565b602060405180830381865afa15801561057a573d6000803e3d6000fd5b505050506040513d601f19601f8201168201806040525081019061059e9190610f9c565b816040517f8f0f42060000000000000000000000000000000000000000000000000000000081526004016105d3929190610fd8565b60405180910390fd5b600360009054906101000a900473ffffffffffffffffffffffffffffffffffffffff1673ffffffffffffffffffffffffffffffffffffffff1663095ea7b3600260009054906101000a900473ffffffffffffffffffffffffffffffffffffffff16836040518363ffffffff1660e01b815260040161065b929190611001565b6020604051808303816000875af115801561067a573d6000803e3d6000fd5b505050506040513d601f19601f8201168201806040525081019061069e9190611062565b50600260009054906101000a900473ffffffffffffffffffffffffffffffffffffffff1673ffffffffffffffffffffffffffffffffffffffff166396f4e9f989846040518363ffffffff1660e01b81526004016106fc929190610f57565b6020604051808303816000875af115801561071b573d6000803e3d6000fd5b505050506040513d601f19601f8201168201806040525081019061073f91906110bb565b93508767ffffffffffffffff16847fd36445359b3c6e26c120659aef090ce0f2eb005cf9af450d11aa1225609b4f4d89600360009054906101000a900473ffffffffffffffffffffffffffffffffffffffff16856040516107a293929190611134565b60405180910390a3505050949350505050565b60008060009054906101000a900473ffffffffffffffffffffffffffffffffffffffff16905090565b6107e66107f2565b6107ef81610901565b50565b60008054906101000a900473ffffffffffffffffffffffffffffffffffffffff1673ffffffffffffffffffffffffffffffffffffffff163373ffffffffffffffffffffffffffffffffffffffff1614610880576040517f08c379a0000000000000000000000000000000000000000000000000000000008152600401610877906111ca565b60405180910390fd5b565b60606397a657c960e01b8260405160240161089d9190611206565b604051602081830303815290604052907bffffffffffffffffffffffffffffffffffffffffffffffffffffffff19166020820180517bffffffffffffffffffffffffffffffffffffffffffffffffffffffff83818316178352505050509050919050565b3373ffffffffffffffffffffffffffffffffffffffff168173ffffffffffffffffffffffffffffffffffffffff160361096f576040517f08c379a00000000000000000000000000000000000000000000000000000000081526004016109669061126d565b60405180910390fd5b80600160006101000a81548173ffffffffffffffffffffffffffffffffffffffff021916908373ffffffffffffffffffffffffffffffffffffffff1602179055508073ffffffffffffffffffffffffffffffffffffffff1660008054906101000a900473ffffffffffffffffffffffffffffffffffffffff1673ffffffffffffffffffffffffffffffffffffffff167fed8889f560326eb138920d842192f0eb3dd22b4f139c87a2c57538e05bae127860405160405180910390a350565b6040518060400160405280600073ffffffffffffffffffffffffffffffffffffffff168152602001600081525090565b600080fd5b600067ffffffffffffffff82169050919050565b610a7f81610a62565b8114610a8a57600080fd5b50565b600081359050610a9c81610a76565b92915050565b600073ffffffffffffffffffffffffffffffffffffffff82169050919050565b6000610acd82610aa2565b9050919050565b610add81610ac2565b8114610ae857600080fd5b50565b600081359050610afa81610ad4565b92915050565b6000819050919050565b610b1381610b00565b8114610b1e57600080fd5b50565b600081359050610b3081610b0a565b92915050565b60008060008060808587031215610b5057610b4f610a5d565b5b6000610b5e87828801610a8d565b9450506020610b6f87828801610aeb565b9350506040610b8087828801610aeb565b9250506060610b9187828801610b21565b91505092959194509250565b6000819050919050565b610bb081610b9d565b82525050565b6000602082019050610bcb6000830184610ba7565b92915050565b610bda81610ac2565b82525050565b6000602082019050610bf56000830184610bd1565b92915050565b600060208284031215610c1157610c10610a5d565b5b6000610c1f84828501610aeb565b91505092915050565b600082825260208201905092915050565b7f4d7573742062652070726f706f736564206f776e657200000000000000000000600082015250565b6000610c6f601683610c28565b9150610c7a82610c39565b602082019050919050565b60006020820190508181036000830152610c9e81610c62565b9050919050565b610cae81610ac2565b82525050565b610cbd81610b00565b82525050565b606082016000820151610cd96000850182610ca5565b506020820151610cec6020850182610ca5565b506040820151610cff6040850182610cb4565b50505050565b6000606082019050610d1a6000830184610cc3565b92915050565b7f4e487b7100000000000000000000000000000000000000000000000000000000600052604160045260246000fd5b610d5881610a62565b82525050565b600081519050919050565b600082825260208201905092915050565b60005b83811015610d98578082015181840152602081019050610d7d565b60008484015250505050565b6000601f19601f8301169050919050565b6000610dc082610d5e565b610dca8185610d69565b9350610dda818560208601610d7a565b610de381610da4565b840191505092915050565b600081519050919050565b600082825260208201905092915050565b6000819050602082019050919050565b604082016000820151610e306000850182610ca5565b506020820151610e436020850182610cb4565b50505050565b6000610e558383610e1a565b60408301905092915050565b6000602082019050919050565b6000610e7982610dee565b610e838185610df9565b9350610e8e83610e0a565b8060005b83811015610ebf578151610ea68882610e49565b9750610eb183610e61565b925050600181019050610e92565b5085935050505092915050565b600060a0830160008301518482036000860152610ee98282610db5565b91505060208301518482036020860152610f038282610db5565b91505060408301518482036040860152610f1d8282610e6e565b9150506060830151610f326060860182610ca5565b5060808301518482036080860152610f4a8282610db5565b9150508091505092915050565b6000604082019050610f6c6000830185610d4f565b8181036020830152610f7e8184610ecc565b90509392505050565b600081519050610f9681610b0a565b92915050565b600060208284031215610fb257610fb1610a5d565b5b6000610fc084828501610f87565b91505092915050565b610fd281610b00565b82525050565b6000604082019050610fed6000830185610fc9565b610ffa6020830184610fc9565b9392505050565b60006040820190506110166000830185610bd1565b6110236020830184610fc9565b9392505050565b60008115159050919050565b61103f8161102a565b811461104a57600080fd5b50565b60008151905061105c81611036565b92915050565b60006020828403121561107857611077610a5d565b5b60006110868482850161104d565b91505092915050565b61109881610b9d565b81146110a357600080fd5b50565b6000815190506110b58161108f565b92915050565b6000602082840312156110d1576110d0610a5d565b5b60006110df848285016110a6565b91505092915050565b7f566f746564000000000000000000000000000000000000000000000000000000600082015250565b600061111e600583610c28565b9150611129826110e8565b602082019050919050565b60006080820190506111496000830186610bd1565b818103602083015261115a81611111565b90506111696040830185610bd1565b6111766060830184610fc9565b949350505050565b7f4f6e6c792063616c6c61626c65206279206f776e657200000000000000000000600082015250565b60006111b4601683610c28565b91506111bf8261117e565b602082019050919050565b600060208201905081810360008301526111e3816111a7565b9050919050565b6020820160008201516112006000850182610cb4565b50505050565b600060208201905061121b60008301846111ea565b92915050565b7f43616e6e6f74207472616e7366657220746f2073656c66000000000000000000600082015250565b6000611257601783610c28565b915061126282611221565b602082019050919050565b600060208201905081810360008301526112868161124a565b905091905056fea2646970667358221220426f7985aba77996963908fca1ff2691792cbb20d9a91aa414bd97f91d8e360364736f6c63430008180033",
  "linkReferences": {},
  "deployedLinkReferences": {}
}