{
  "_format": "hh-sol-artifact-1",
  "contractName": "ElectionFactory",
  "sourceName": "contracts/ElectionFactory.sol",
  "abi": [
    {
      "inputs": [
        {
          "internalType": "address",
          "name": "router",
          "type": "address"
        }
      ],
      "stateMutability": "nonpayable",
      "type": "constructor"
    },
    {
      "inputs": [
        {
          "internalType": "address",
          "name": "router",
          "type": "address"
        }
      ],
      "name": "InvalidRouter",
      "type": "error"
    },
    {
      "anonymous": false,
      "inputs": [
        {
          "indexed": true,
          "internalType": "bytes32",
          "name": "messageId",
          "type": "bytes32"
        },
        {
          "indexed": true,
          "internalType": "uint64",
          "name": "sourceChainSelector",
          "type": "uint64"
        },
        {
          "indexed": false,
          "internalType": "address",
          "name": "sender",
          "type": "address"
        },
        {
          "indexed": false,
          "internalType": "string",
          "name": "text",
          "type": "string"
        }
      ],
      "name": "MessageReceived",
      "type": "event"
    },
    {
      "inputs": [
        {
          "internalType": "uint256",
          "name": "",
          "type": "uint256"
        }
      ],
      "name": "approvedSenderContracts",
      "outputs": [
        {
          "internalType": "address",
          "name": "",
          "type": "address"
        }
      ],
      "stateMutability": "view",
      "type": "function"
    },
    {
      "inputs": [
        {
          "components": [
            {
              "internalType": "bytes32",
              "name": "messageId",
              "type": "bytes32"
            },
            {
              "internalType": "uint64",
              "name": "sourceChainSelector",
              "type": "uint64"
            },
            {
              "internalType": "bytes",
              "name": "sender",
              "type": "bytes"
            },
            {
              "internalType": "bytes",
              "name": "data",
              "type": "bytes"
            },
            {
              "components": [
                {
                  "internalType": "address",
                  "name": "token",
                  "type": "address"
                },
                {
                  "internalType": "uint256",
                  "name": "amount",
                  "type": "uint256"
                }
              ],
              "internalType": "struct Client.EVMTokenAmount[]",
              "name": "destTokenAmounts",
              "type": "tuple[]"
            }
          ],
          "internalType": "struct Client.Any2EVMMessage",
          "name": "message",
          "type": "tuple"
        }
      ],
      "name": "ccipReceive",
      "outputs": [],
      "stateMutability": "nonpayable",
      "type": "function"
    },
    {
      "inputs": [
        {
          "components": [
            {
              "internalType": "string",
              "name": "name",
              "type": "string"
            },
            {
              "internalType": "string",
              "name": "description",
              "type": "string"
            }
          ],
          "internalType": "struct Election.ElectionInfo",
          "name": "_electionInfo",
          "type": "tuple"
        },
        {
          "internalType": "uint256",
          "name": "_ballotType",
          "type": "uint256"
        },
        {
          "internalType": "uint256",
          "name": "_resultType",
          "type": "uint256"
        }
      ],
      "name": "createElection",
      "outputs": [],
      "stateMutability": "nonpayable",
      "type": "function"
    },
    {
      "inputs": [],
      "name": "deleteElection",
      "outputs": [],
      "stateMutability": "nonpayable",
      "type": "function"
    },
    {
      "inputs": [],
      "name": "getRouter",
      "outputs": [
        {
          "internalType": "address",
          "name": "",
          "type": "address"
        }
      ],
      "stateMutability": "view",
      "type": "function"
    },
    {
      "inputs": [
        {
          "internalType": "uint256",
          "name": "",
          "type": "uint256"
        }
      ],
      "name": "openBasedElections",
      "outputs": [
        {
          "internalType": "address",
          "name": "",
          "type": "address"
        }
      ],
      "stateMutability": "view",
      "type": "function"
    },
    {
      "inputs": [
        {
          "internalType": "bytes4",
          "name": "interfaceId",
          "type": "bytes4"
        }
      ],
      "name": "supportsInterface",
      "outputs": [
        {
          "internalType": "bool",
          "name": "",
          "type": "bool"
        }
      ],
      "stateMutability": "pure",
      "type": "function"
    },
    {
      "inputs": [],
      "name": "updateElection",
      "outputs": [],
      "stateMutability": "nonpayable",
      "type": "function"
    }
  ],
  "bytecode": "0x60a06040523480156200001157600080fd5b5060405162003f2638038062003f26833981810160405281019062000037919062000153565b80600073ffffffffffffffffffffffffffffffffffffffff168173ffffffffffffffffffffffffffffffffffffffff1603620000ad5760006040517fd7f73334000000000000000000000000000000000000000000000000000000008152600401620000a4919062000196565b60405180910390fd5b8073ffffffffffffffffffffffffffffffffffffffff1660808173ffffffffffffffffffffffffffffffffffffffff16815250505050620001b3565b600080fd5b600073ffffffffffffffffffffffffffffffffffffffff82169050919050565b60006200011b82620000ee565b9050919050565b6200012d816200010e565b81146200013957600080fd5b50565b6000815190506200014d8162000122565b92915050565b6000602082840312156200016c576200016b620000e9565b5b60006200017c848285016200013c565b91505092915050565b62000190816200010e565b82525050565b6000602082019050620001ad600083018462000185565b92915050565b608051613d50620001d6600039600081816103b801526104660152613d506000f3fe60806040523480156200001157600080fd5b5060043610620000945760003560e01c806333be940d116200006357806333be940d146200013157806334d8fd5d146200013d57806385572ffb1462000173578063b0f479a114620001935762000094565b806301ffc9a714620000995780630c78d82714620000cf57806320de2ee614620000db57806324afe0991462000111575b600080fd5b620000b76004803603810190620000b1919062000622565b620001b5565b604051620000c6919062000671565b60405180910390f35b620000d962000288565b005b620000f96004803603810190620000f39190620006c9565b6200028a565b60405162000108919062000740565b60405180910390f35b6200012f600480360381019062000129919062000960565b620002ca565b005b6200013b62000374565b005b6200015b6004803603810190620001559190620006c9565b62000376565b6040516200016a919062000740565b60405180910390f35b6200019160048036038101906200018b919062000a02565b620003b6565b005b6200019d62000462565b604051620001ac919062000740565b60405180910390f35b60007f85572ffb000000000000000000000000000000000000000000000000000000007bffffffffffffffffffffffffffffffffffffffffffffffffffffffff1916827bffffffffffffffffffffffffffffffffffffffffffffffffffffffff191614806200028157507f01ffc9a7000000000000000000000000000000000000000000000000000000007bffffffffffffffffffffffffffffffffffffffffffffffffffffffff1916827bffffffffffffffffffffffffffffffffffffffffffffffffffffffff1916145b9050919050565b565b600081815481106200029b57600080fd5b906000526020600020016000915054906101000a900473ffffffffffffffffffffffffffffffffffffffff1681565b6000838383604051620002dd90620005a3565b620002eb9392919062000b35565b604051809103906000f08015801562000308573d6000803e3d6000fd5b5090506000819080600181540180825580915050600190039060005260206000200160009091909190916101000a81548173ffffffffffffffffffffffffffffffffffffffff021916908373ffffffffffffffffffffffffffffffffffffffff16021790555050505050565b565b600181815481106200038757600080fd5b906000526020600020016000915054906101000a900473ffffffffffffffffffffffffffffffffffffffff1681565b7f000000000000000000000000000000000000000000000000000000000000000073ffffffffffffffffffffffffffffffffffffffff163373ffffffffffffffffffffffffffffffffffffffff16146200044957336040517fd7f7333400000000000000000000000000000000000000000000000000000000815260040162000440919062000740565b60405180910390fd5b6200045f81620004599062000f0a565b6200048a565b50565b60007f0000000000000000000000000000000000000000000000000000000000000000905090565b60008160600151806020019051810190620004a6919062000fbc565b9050620004b3816200051d565b816020015167ffffffffffffffff1682600001517fb1e312a29937cc11967b0e4a346fef1ae132424ebaba9dc6d90249dba053e87c846040015180602001905181019062000502919062001033565b60405162000511919062001131565b60405180910390a35050565b6000816000015190508073ffffffffffffffffffffffffffffffffffffffff16632a214451836020015184604001516040518363ffffffff1660e01b81526004016200056b92919062001163565b600060405180830381600087803b1580156200058657600080fd5b505af11580156200059b573d6000803e3d6000fd5b505050505050565b612b8a806200119183390190565b6000604051905090565b600080fd5b600080fd5b60007fffffffff0000000000000000000000000000000000000000000000000000000082169050919050565b620005fc81620005c5565b81146200060857600080fd5b50565b6000813590506200061c81620005f1565b92915050565b6000602082840312156200063b576200063a620005bb565b5b60006200064b848285016200060b565b91505092915050565b60008115159050919050565b6200066b8162000654565b82525050565b600060208201905062000688600083018462000660565b92915050565b6000819050919050565b620006a3816200068e565b8114620006af57600080fd5b50565b600081359050620006c38162000698565b92915050565b600060208284031215620006e257620006e1620005bb565b5b6000620006f284828501620006b2565b91505092915050565b600073ffffffffffffffffffffffffffffffffffffffff82169050919050565b60006200072882620006fb565b9050919050565b6200073a816200071b565b82525050565b60006020820190506200075760008301846200072f565b92915050565b600080fd5b6000601f19601f8301169050919050565b7f4e487b7100000000000000000000000000000000000000000000000000000000600052604160045260246000fd5b620007ad8262000762565b810181811067ffffffffffffffff82111715620007cf57620007ce62000773565b5b80604052505050565b6000620007e4620005b1565b9050620007f28282620007a2565b919050565b600080fd5b600080fd5b600080fd5b600067ffffffffffffffff82111562000824576200082362000773565b5b6200082f8262000762565b9050602081019050919050565b82818337600083830152505050565b6000620008626200085c8462000806565b620007d8565b90508281526020810184848401111562000881576200088062000801565b5b6200088e8482856200083c565b509392505050565b600082601f830112620008ae57620008ad620007fc565b5b8135620008c08482602086016200084b565b91505092915050565b600060408284031215620008e257620008e16200075d565b5b620008ee6040620007d8565b9050600082013567ffffffffffffffff811115620009115762000910620007f7565b5b6200091f8482850162000896565b600083015250602082013567ffffffffffffffff811115620009465762000945620007f7565b5b620009548482850162000896565b60208301525092915050565b6000806000606084860312156200097c576200097b620005bb565b5b600084013567ffffffffffffffff8111156200099d576200099c620005c0565b5b620009ab86828701620008c9565b9350506020620009be86828701620006b2565b9250506040620009d186828701620006b2565b9150509250925092565b600080fd5b600060a08284031215620009f957620009f8620009db565b5b81905092915050565b60006020828403121562000a1b5762000a1a620005bb565b5b600082013567ffffffffffffffff81111562000a3c5762000a3b620005c0565b5b62000a4a84828501620009e0565b91505092915050565b600081519050919050565b600082825260208201905092915050565b60005b8381101562000a8f57808201518184015260208101905062000a72565b60008484015250505050565b600062000aa88262000a53565b62000ab4818562000a5e565b935062000ac681856020860162000a6f565b62000ad18162000762565b840191505092915050565b6000604083016000830151848203600086015262000afb828262000a9b565b9150506020830151848203602086015262000b17828262000a9b565b9150508091505092915050565b62000b2f816200068e565b82525050565b6000606082019050818103600083015262000b51818662000adc565b905062000b62602083018562000b24565b62000b71604083018462000b24565b949350505050565b6000819050919050565b62000b8e8162000b79565b811462000b9a57600080fd5b50565b60008135905062000bae8162000b83565b92915050565b600067ffffffffffffffff82169050919050565b62000bd38162000bb4565b811462000bdf57600080fd5b50565b60008135905062000bf38162000bc8565b92915050565b600067ffffffffffffffff82111562000c175762000c1662000773565b5b62000c228262000762565b9050602081019050919050565b600062000c4662000c408462000bf9565b620007d8565b90508281526020810184848401111562000c655762000c6462000801565b5b62000c728482856200083c565b509392505050565b600082601f83011262000c925762000c91620007fc565b5b813562000ca484826020860162000c2f565b91505092915050565b600067ffffffffffffffff82111562000ccb5762000cca62000773565b5b602082029050602081019050919050565b600080fd5b62000cec816200071b565b811462000cf857600080fd5b50565b60008135905062000d0c8162000ce1565b92915050565b60006040828403121562000d2b5762000d2a6200075d565b5b62000d376040620007d8565b9050600062000d498482850162000cfb565b600083015250602062000d5f84828501620006b2565b60208301525092915050565b600062000d8262000d7c8462000cad565b620007d8565b9050808382526020820190506040840283018581111562000da85762000da762000cdc565b5b835b8181101562000dd5578062000dc0888262000d12565b84526020840193505060408101905062000daa565b5050509392505050565b600082601f83011262000df75762000df6620007fc565b5b813562000e0984826020860162000d6b565b91505092915050565b600060a0828403121562000e2b5762000e2a6200075d565b5b62000e3760a0620007d8565b9050600062000e498482850162000b9d565b600083015250602062000e5f8482850162000be2565b602083015250604082013567ffffffffffffffff81111562000e865762000e85620007f7565b5b62000e948482850162000c7a565b604083015250606082013567ffffffffffffffff81111562000ebb5762000eba620007f7565b5b62000ec98482850162000c7a565b606083015250608082013567ffffffffffffffff81111562000ef05762000eef620007f7565b5b62000efe8482850162000ddf565b60808301525092915050565b600062000f18368362000e12565b9050919050565b60008151905062000f308162000ce1565b92915050565b60008151905062000f478162000698565b92915050565b60006060828403121562000f665762000f656200075d565b5b62000f726060620007d8565b9050600062000f848482850162000f1f565b600083015250602062000f9a8482850162000f1f565b602083015250604062000fb08482850162000f36565b60408301525092915050565b60006060828403121562000fd55762000fd4620005bb565b5b600062000fe58482850162000f4d565b91505092915050565b600062000ffb82620006fb565b9050919050565b6200100d8162000fee565b81146200101957600080fd5b50565b6000815190506200102d8162001002565b92915050565b6000602082840312156200104c576200104b620005bb565b5b60006200105c848285016200101c565b91505092915050565b6000819050919050565b6000620010906200108a6200108484620006fb565b62001065565b620006fb565b9050919050565b6000620010a4826200106f565b9050919050565b6000620010b88262001097565b9050919050565b620010ca81620010ab565b82525050565b600082825260208201905092915050565b7f5573657220766f74656400000000000000000000000000000000000000000000600082015250565b600062001119600a83620010d0565b91506200112682620010e1565b602082019050919050565b6000604082019050620011486000830184620010bf565b81810360208301526200115b816200110a565b905092915050565b60006040820190506200117a60008301856200072f565b62001189602083018462000b24565b939250505056fe60806040523480156200001157600080fd5b5060405162002b8a38038062002b8a8339818101604052810190620000379190620003a7565b826003600082015181600001908162000051919062000663565b50602082015181600101908162000069919062000663565b509050506040516200007b906200012a565b604051809103906000f08015801562000098573d6000803e3d6000fd5b50600560006101000a81548173ffffffffffffffffffffffffffffffffffffffff021916908373ffffffffffffffffffffffffffffffffffffffff1602179055508060068190555033600760006101000a81548173ffffffffffffffffffffffffffffffffffffffff021916908373ffffffffffffffffffffffffffffffffffffffff1602179055505050506200074a565b610d128062001e7883390190565b6000604051905090565b600080fd5b600080fd5b600080fd5b6000601f19601f8301169050919050565b7f4e487b7100000000000000000000000000000000000000000000000000000000600052604160045260246000fd5b6200019c8262000151565b810181811067ffffffffffffffff82111715620001be57620001bd62000162565b5b80604052505050565b6000620001d362000138565b9050620001e1828262000191565b919050565b600080fd5b600080fd5b600080fd5b600067ffffffffffffffff82111562000213576200021262000162565b5b6200021e8262000151565b9050602081019050919050565b60005b838110156200024b5780820151818401526020810190506200022e565b60008484015250505050565b60006200026e6200026884620001f5565b620001c7565b9050828152602081018484840111156200028d576200028c620001f0565b5b6200029a8482856200022b565b509392505050565b600082601f830112620002ba57620002b9620001eb565b5b8151620002cc84826020860162000257565b91505092915050565b600060408284031215620002ee57620002ed6200014c565b5b620002fa6040620001c7565b9050600082015167ffffffffffffffff8111156200031d576200031c620001e6565b5b6200032b84828501620002a2565b600083015250602082015167ffffffffffffffff811115620003525762000351620001e6565b5b6200036084828501620002a2565b60208301525092915050565b6000819050919050565b62000381816200036c565b81146200038d57600080fd5b50565b600081519050620003a18162000376565b92915050565b600080600060608486031215620003c357620003c262000142565b5b600084015167ffffffffffffffff811115620003e457620003e362000147565b5b620003f286828701620002d5565b9350506020620004058682870162000390565b9250506040620004188682870162000390565b9150509250925092565b600081519050919050565b7f4e487b7100000000000000000000000000000000000000000000000000000000600052602260045260246000fd5b600060028204905060018216806200047557607f821691505b6020821081036200048b576200048a6200042d565b5b50919050565b60008190508160005260206000209050919050565b60006020601f8301049050919050565b600082821b905092915050565b600060088302620004f57fffffffffffffffffffffffffffffffffffffffffffffffffffffffffffffffff82620004b6565b620005018683620004b6565b95508019841693508086168417925050509392505050565b6000819050919050565b6000620005446200053e62000538846200036c565b62000519565b6200036c565b9050919050565b6000819050919050565b620005608362000523565b620005786200056f826200054b565b848454620004c3565b825550505050565b600090565b6200058f62000580565b6200059c81848462000555565b505050565b5b81811015620005c457620005b860008262000585565b600181019050620005a2565b5050565b601f8211156200061357620005dd8162000491565b620005e884620004a6565b81016020851015620005f8578190505b620006106200060785620004a6565b830182620005a1565b50505b505050565b600082821c905092915050565b6000620006386000198460080262000618565b1980831691505092915050565b600062000653838362000625565b9150826002028217905092915050565b6200066e8262000422565b67ffffffffffffffff8111156200068a576200068962000162565b5b6200069682546200045c565b620006a3828285620005c8565b600060209050601f831160018114620006db5760008415620006c6578287015190505b620006d2858262000645565b86555062000742565b601f198416620006eb8662000491565b60005b828110156200071557848901518255600182019150602085019450602081019050620006ee565b8683101562000735578489015162000731601f89168262000625565b8355505b6001600288020188555050505b505050505050565b61171e806200075a6000396000f3fe608060405234801561001057600080fd5b50600436106100b45760003560e01c80636c74bf6d116100715780636c74bf6d1461018a578063ac3910a2146101a9578063c720990a146101c7578063de11c94a146101e5578063de29278914610203578063fdbc400614610221576100b4565b806309e9d7e2146100b957806312e2dd93146100d5578063254fe7d7146100f15780632a214451146101215780633477ee2e1461013d578063462e91ec1461016e575b600080fd5b6100d360048036038101906100ce9190610b16565b61023f565b005b6100ef60048036038101906100ea9190610b16565b610326565b005b61010b60048036038101906101069190610ba1565b61041d565b6040516101189190610be9565b60405180910390f35b61013b60048036038101906101369190610c04565b61043d565b005b61015760048036038101906101529190610b16565b610532565b604051610165929190610ce3565b60405180910390f35b61018860048036038101906101839190610d78565b6105ee565b005b6101926106a3565b6040516101a0929190610dc5565b60405180910390f35b6101b16107c5565b6040516101be9190610e5b565b60405180910390f35b6101cf6107eb565b6040516101dc9190610e76565b60405180910390f35b6101ed6107f1565b6040516101fa9190610ea0565b60405180910390f35b61020b610817565b6040516102189190610f79565b60405180910390f35b610229610826565b60405161023691906110e4565b60405180910390f35b600060016000805490506102539190611135565b8154811061026457610263611169565b5b90600052602060002090600202016000828154811061028657610285611169565b5b906000526020600020906002020160008201548160000155600182018160010190816102b291906113df565b5090505080600082815481106102cb576102ca611169565b5b90600052602060002090600202016000018190555060008054806102f2576102f16114c7565b5b600190038181906000526020600020906002020160008082016000905560018201600061031f9190610a2c565b5050905550565b60001515600260003373ffffffffffffffffffffffffffffffffffffffff1673ffffffffffffffffffffffffffffffffffffffff16815260200190815260200160002060009054906101000a900460ff161515146103b9576040517f08c379a00000000000000000000000000000000000000000000000000000000081526004016103b090611542565b60405180910390fd5b6001600260003373ffffffffffffffffffffffffffffffffffffffff1673ffffffffffffffffffffffffffffffffffffffff16815260200190815260200160002060006101000a81548160ff02191690831515021790555061041a81610921565b50565b60026020528060005260406000206000915054906101000a900460ff1681565b600760009054906101000a900473ffffffffffffffffffffffffffffffffffffffff1673ffffffffffffffffffffffffffffffffffffffff163373ffffffffffffffffffffffffffffffffffffffff16146104cd576040517f08c379a00000000000000000000000000000000000000000000000000000000081526004016104c4906115ae565b60405180910390fd5b6001600260008473ffffffffffffffffffffffffffffffffffffffff1673ffffffffffffffffffffffffffffffffffffffff16815260200190815260200160002060006101000a81548160ff02191690831515021790555061052e81610921565b5050565b6000818154811061054257600080fd5b906000526020600020906002020160009150905080600001549080600101805461056b906111c7565b80601f0160208091040260200160405190810160405280929190818152602001828054610597906111c7565b80156105e45780601f106105b9576101008083540402835291602001916105e4565b820191906000526020600020905b8154815290600101906020018083116105c757829003601f168201915b5050505050905082565b60006040518060400160405280600080549050815260200184848080601f016020809104026020016040519081016040528093929190818152602001838380828437600081840152601f19601f820116905080830192505050505050508152509050600081908060018154018082558091505060019003906000526020600020906002020160009091909190915060008201518160000155602082015181600101908161069b91906115ce565b505050505050565b60038060000180546106b4906111c7565b80601f01602080910402602001604051908101604052809291908181526020018280546106e0906111c7565b801561072d5780601f106107025761010080835404028352916020019161072d565b820191906000526020600020905b81548152906001019060200180831161071057829003601f168201915b505050505090806001018054610742906111c7565b80601f016020809104026020016040519081016040528092919081815260200182805461076e906111c7565b80156107bb5780601f10610790576101008083540402835291602001916107bb565b820191906000526020600020905b81548152906001019060200180831161079e57829003601f168201915b5050505050905082565b600560009054906101000a900473ffffffffffffffffffffffffffffffffffffffff1681565b60065481565b600760009054906101000a900473ffffffffffffffffffffffffffffffffffffffff1681565b606061082161096e565b905090565b60606000805480602002602001604051908101604052809291908181526020016000905b82821015610918578382906000526020600020906002020160405180604001604052908160008201548152602001600182018054610887906111c7565b80601f01602080910402602001604051908101604052809291908181526020018280546108b3906111c7565b80156109005780601f106108d557610100808354040283529160200191610900565b820191906000526020600020905b8154815290600101906020018083116108e357829003601f168201915b5050505050815250508152602001906001019061084a565b50505050905090565b600060018054905003610937576109366109c6565b5b6001818154811061094b5761094a611169565b5b906000526020600020016000815480929190610966906116a0565b919050555050565b606060018054806020026020016040519081016040528092919081815260200182805480156109bc57602002820191906000526020600020905b8154815260200190600101908083116109a8575b5050505050905090565b60008054905067ffffffffffffffff8111156109e5576109e461120e565b5b604051908082528060200260200182016040528015610a135781602001602082028036833780820191505090505b5060019080519060200190610a29929190610a6c565b50565b508054610a38906111c7565b6000825580601f10610a4a5750610a69565b601f016020900490600052602060002090810190610a689190610ab9565b5b50565b828054828255906000526020600020908101928215610aa8579160200282015b82811115610aa7578251825591602001919060010190610a8c565b5b509050610ab59190610ab9565b5090565b5b80821115610ad2576000816000905550600101610aba565b5090565b600080fd5b600080fd5b6000819050919050565b610af381610ae0565b8114610afe57600080fd5b50565b600081359050610b1081610aea565b92915050565b600060208284031215610b2c57610b2b610ad6565b5b6000610b3a84828501610b01565b91505092915050565b600073ffffffffffffffffffffffffffffffffffffffff82169050919050565b6000610b6e82610b43565b9050919050565b610b7e81610b63565b8114610b8957600080fd5b50565b600081359050610b9b81610b75565b92915050565b600060208284031215610bb757610bb6610ad6565b5b6000610bc584828501610b8c565b91505092915050565b60008115159050919050565b610be381610bce565b82525050565b6000602082019050610bfe6000830184610bda565b92915050565b60008060408385031215610c1b57610c1a610ad6565b5b6000610c2985828601610b8c565b9250506020610c3a85828601610b01565b9150509250929050565b610c4d81610ae0565b82525050565b600081519050919050565b600082825260208201905092915050565b60005b83811015610c8d578082015181840152602081019050610c72565b60008484015250505050565b6000601f19601f8301169050919050565b6000610cb582610c53565b610cbf8185610c5e565b9350610ccf818560208601610c6f565b610cd881610c99565b840191505092915050565b6000604082019050610cf86000830185610c44565b8181036020830152610d0a8184610caa565b90509392505050565b600080fd5b600080fd5b600080fd5b60008083601f840112610d3857610d37610d13565b5b8235905067ffffffffffffffff811115610d5557610d54610d18565b5b602083019150836001820283011115610d7157610d70610d1d565b5b9250929050565b60008060208385031215610d8f57610d8e610ad6565b5b600083013567ffffffffffffffff811115610dad57610dac610adb565b5b610db985828601610d22565b92509250509250929050565b60006040820190508181036000830152610ddf8185610caa565b90508181036020830152610df38184610caa565b90509392505050565b6000819050919050565b6000610e21610e1c610e1784610b43565b610dfc565b610b43565b9050919050565b6000610e3382610e06565b9050919050565b6000610e4582610e28565b9050919050565b610e5581610e3a565b82525050565b6000602082019050610e706000830184610e4c565b92915050565b6000602082019050610e8b6000830184610c44565b92915050565b610e9a81610b63565b82525050565b6000602082019050610eb56000830184610e91565b92915050565b600081519050919050565b600082825260208201905092915050565b6000819050602082019050919050565b610ef081610ae0565b82525050565b6000610f028383610ee7565b60208301905092915050565b6000602082019050919050565b6000610f2682610ebb565b610f308185610ec6565b9350610f3b83610ed7565b8060005b83811015610f6c578151610f538882610ef6565b9750610f5e83610f0e565b925050600181019050610f3f565b5085935050505092915050565b60006020820190508181036000830152610f938184610f1b565b905092915050565b600081519050919050565b600082825260208201905092915050565b6000819050602082019050919050565b600082825260208201905092915050565b6000610fe382610c53565b610fed8185610fc7565b9350610ffd818560208601610c6f565b61100681610c99565b840191505092915050565b60006040830160008301516110296000860182610ee7565b50602083015184820360208601526110418282610fd8565b9150508091505092915050565b600061105a8383611011565b905092915050565b6000602082019050919050565b600061107a82610f9b565b6110848185610fa6565b93508360208202850161109685610fb7565b8060005b858110156110d257848403895281516110b3858261104e565b94506110be83611062565b925060208a0199505060018101905061109a565b50829750879550505050505092915050565b600060208201905081810360008301526110fe818461106f565b905092915050565b7f4e487b7100000000000000000000000000000000000000000000000000000000600052601160045260246000fd5b600061114082610ae0565b915061114b83610ae0565b925082820390508181111561116357611162611106565b5b92915050565b7f4e487b7100000000000000000000000000000000000000000000000000000000600052603260045260246000fd5b7f4e487b7100000000000000000000000000000000000000000000000000000000600052602260045260246000fd5b600060028204905060018216806111df57607f821691505b6020821081036111f2576111f1611198565b5b50919050565b600081549050611207816111c7565b9050919050565b7f4e487b7100000000000000000000000000000000000000000000000000000000600052604160045260246000fd5b60008190508160005260206000209050919050565b60006020601f8301049050919050565b600082821b905092915050565b60006008830261129f7fffffffffffffffffffffffffffffffffffffffffffffffffffffffffffffffff82611262565b6112a98683611262565b95508019841693508086168417925050509392505050565b60006112dc6112d76112d284610ae0565b610dfc565b610ae0565b9050919050565b6000819050919050565b6112f6836112c1565b61130a611302826112e3565b84845461126f565b825550505050565b600090565b61131f611312565b61132a8184846112ed565b505050565b5b8181101561134e57611343600082611317565b600181019050611330565b5050565b601f821115611393576113648161123d565b61136d84611252565b8101602085101561137c578190505b61139061138885611252565b83018261132f565b50505b505050565b600082821c905092915050565b60006113b660001984600802611398565b1980831691505092915050565b60006113cf83836113a5565b9150826002028217905092915050565b8181036113ed5750506114c5565b6113f6826111f8565b67ffffffffffffffff81111561140f5761140e61120e565b5b61141982546111c7565b611424828285611352565b6000601f8311600181146114535760008415611441578287015490505b61144b85826113c3565b8655506114be565b601f1984166114618761123d565b965061146c8661123d565b60005b828110156114945784890154825560018201915060018501945060208101905061146f565b868310156114b157848901546114ad601f8916826113a5565b8355505b6001600288020188555050505b5050505050505b565b7f4e487b7100000000000000000000000000000000000000000000000000000000600052603160045260246000fd5b7f5573657220566f74656400000000000000000000000000000000000000000000600082015250565b600061152c600a83610c5e565b9150611537826114f6565b602082019050919050565b6000602082019050818103600083015261155b8161151f565b9050919050565b7f43616e6e6f742063616c6c000000000000000000000000000000000000000000600082015250565b6000611598600b83610c5e565b91506115a382611562565b602082019050919050565b600060208201905081810360008301526115c78161158b565b9050919050565b6115d782610c53565b67ffffffffffffffff8111156115f0576115ef61120e565b5b6115fa82546111c7565b611605828285611352565b600060209050601f8311600181146116385760008415611626578287015190505b61163085826113c3565b865550611698565b601f1984166116468661123d565b60005b8281101561166e57848901518255600182019150602085019450602081019050611649565b8683101561168b5784890151611687601f8916826113a5565b8355505b6001600288020188555050505b505050505050565b60006116ab82610ae0565b91507fffffffffffffffffffffffffffffffffffffffffffffffffffffffffffffffff82036116dd576116dc611106565b5b60018201905091905056fea2646970667358221220c49ee85568bab2c0c7a6d60bb051818ce633323d0812cb6fed8911766c624a0164736f6c63430008180033608060405234801561001057600080fd5b50610cf2806100206000396000f3fe608060405234801561001057600080fd5b506004361061004c5760003560e01c806309e9d7e2146100515780633477ee2e1461006d578063462e91ec1461009e578063fdbc4006146100ba575b600080fd5b61006b600480360381019061006691906104c8565b6100d8565b005b610087600480360381019061008291906104c8565b6101bf565b604051610095929190610594565b60405180910390f35b6100b860048036038101906100b39190610629565b61027b565b005b6100c2610330565b6040516100cf91906107ce565b60405180910390f35b600060016000805490506100ec919061081f565b815481106100fd576100fc610853565b5b90600052602060002090600202016000828154811061011f5761011e610853565b5b9060005260206000209060020201600082015481600001556001820181600101908161014b9190610ad3565b50905050806000828154811061016457610163610853565b5b906000526020600020906002020160000181905550600080548061018b5761018a610bbb565b5b60019003818190600052602060002090600202016000808201600090556001820160006101b8919061042b565b5050905550565b600081815481106101cf57600080fd5b90600052602060002090600202016000915090508060000154908060010180546101f8906108b1565b80601f0160208091040260200160405190810160405280929190818152602001828054610224906108b1565b80156102715780601f1061024657610100808354040283529160200191610271565b820191906000526020600020905b81548152906001019060200180831161025457829003601f168201915b5050505050905082565b60006040518060400160405280600080549050815260200184848080601f016020809104026020016040519081016040528093929190818152602001838380828437600081840152601f19601f82011690508083019250505050505050815250905060008190806001815401808255809150506001900390600052602060002090600202016000909190919091506000820151816000015560208201518160010190816103289190610bea565b505050505050565b60606000805480602002602001604051908101604052809291908181526020016000905b82821015610422578382906000526020600020906002020160405180604001604052908160008201548152602001600182018054610391906108b1565b80601f01602080910402602001604051908101604052809291908181526020018280546103bd906108b1565b801561040a5780601f106103df5761010080835404028352916020019161040a565b820191906000526020600020905b8154815290600101906020018083116103ed57829003601f168201915b50505050508152505081526020019060010190610354565b50505050905090565b508054610437906108b1565b6000825580601f106104495750610468565b601f016020900490600052602060002090810190610467919061046b565b5b50565b5b8082111561048457600081600090555060010161046c565b5090565b600080fd5b600080fd5b6000819050919050565b6104a581610492565b81146104b057600080fd5b50565b6000813590506104c28161049c565b92915050565b6000602082840312156104de576104dd610488565b5b60006104ec848285016104b3565b91505092915050565b6104fe81610492565b82525050565b600081519050919050565b600082825260208201905092915050565b60005b8381101561053e578082015181840152602081019050610523565b60008484015250505050565b6000601f19601f8301169050919050565b600061056682610504565b610570818561050f565b9350610580818560208601610520565b6105898161054a565b840191505092915050565b60006040820190506105a960008301856104f5565b81810360208301526105bb818461055b565b90509392505050565b600080fd5b600080fd5b600080fd5b60008083601f8401126105e9576105e86105c4565b5b8235905067ffffffffffffffff811115610606576106056105c9565b5b602083019150836001820283011115610622576106216105ce565b5b9250929050565b600080602083850312156106405761063f610488565b5b600083013567ffffffffffffffff81111561065e5761065d61048d565b5b61066a858286016105d3565b92509250509250929050565b600081519050919050565b600082825260208201905092915050565b6000819050602082019050919050565b6106ab81610492565b82525050565b600082825260208201905092915050565b60006106cd82610504565b6106d781856106b1565b93506106e7818560208601610520565b6106f08161054a565b840191505092915050565b600060408301600083015161071360008601826106a2565b506020830151848203602086015261072b82826106c2565b9150508091505092915050565b600061074483836106fb565b905092915050565b6000602082019050919050565b600061076482610676565b61076e8185610681565b93508360208202850161078085610692565b8060005b858110156107bc578484038952815161079d8582610738565b94506107a88361074c565b925060208a01995050600181019050610784565b50829750879550505050505092915050565b600060208201905081810360008301526107e88184610759565b905092915050565b7f4e487b7100000000000000000000000000000000000000000000000000000000600052601160045260246000fd5b600061082a82610492565b915061083583610492565b925082820390508181111561084d5761084c6107f0565b5b92915050565b7f4e487b7100000000000000000000000000000000000000000000000000000000600052603260045260246000fd5b7f4e487b7100000000000000000000000000000000000000000000000000000000600052602260045260246000fd5b600060028204905060018216806108c957607f821691505b6020821081036108dc576108db610882565b5b50919050565b6000815490506108f1816108b1565b9050919050565b7f4e487b7100000000000000000000000000000000000000000000000000000000600052604160045260246000fd5b60008190508160005260206000209050919050565b60006020601f8301049050919050565b600082821b905092915050565b6000600883026109897fffffffffffffffffffffffffffffffffffffffffffffffffffffffffffffffff8261094c565b610993868361094c565b95508019841693508086168417925050509392505050565b6000819050919050565b60006109d06109cb6109c684610492565b6109ab565b610492565b9050919050565b6000819050919050565b6109ea836109b5565b6109fe6109f6826109d7565b848454610959565b825550505050565b600090565b610a13610a06565b610a1e8184846109e1565b505050565b5b81811015610a4257610a37600082610a0b565b600181019050610a24565b5050565b601f821115610a8757610a5881610927565b610a618461093c565b81016020851015610a70578190505b610a84610a7c8561093c565b830182610a23565b50505b505050565b600082821c905092915050565b6000610aaa60001984600802610a8c565b1980831691505092915050565b6000610ac38383610a99565b9150826002028217905092915050565b818103610ae1575050610bb9565b610aea826108e2565b67ffffffffffffffff811115610b0357610b026108f8565b5b610b0d82546108b1565b610b18828285610a46565b6000601f831160018114610b475760008415610b35578287015490505b610b3f8582610ab7565b865550610bb2565b601f198416610b5587610927565b9650610b6086610927565b60005b82811015610b8857848901548255600182019150600185019450602081019050610b63565b86831015610ba55784890154610ba1601f891682610a99565b8355505b6001600288020188555050505b5050505050505b565b7f4e487b7100000000000000000000000000000000000000000000000000000000600052603160045260246000fd5b610bf382610504565b67ffffffffffffffff811115610c0c57610c0b6108f8565b5b610c1682546108b1565b610c21828285610a46565b600060209050601f831160018114610c545760008415610c42578287015190505b610c4c8582610ab7565b865550610cb4565b601f198416610c6286610927565b60005b82811015610c8a57848901518255600182019150602085019450602081019050610c65565b86831015610ca75784890151610ca3601f891682610a99565b8355505b6001600288020188555050505b50505050505056fea2646970667358221220aa476eeab2945422d018f4fcd7e5d5b3e8ec20c86c06dc6c10aacbc72c89cec764736f6c63430008180033a26469706673582212201a16956a78370191505cde267648078c2019d7b65a115cc5edc43f224968cc5564736f6c63430008180033",
  "linkReferences": {},
  "deployedLinkReferences": {}
}